{
  "contractName": "Payments",
  "abi": [
    {
      "anonymous": false,
      "inputs": [
        {
          "indexed": false,
          "internalType": "address",
          "name": "",
          "type": "address"
        },
        {
          "indexed": false,
          "internalType": "address",
          "name": "",
          "type": "address"
        },
        {
          "indexed": false,
          "internalType": "string",
          "name": "",
          "type": "string"
        },
        {
          "indexed": false,
          "internalType": "uint256",
          "name": "",
          "type": "uint256"
        }
      ],
      "name": "paymentDone",
      "type": "event"
    },
    {
      "anonymous": false,
      "inputs": [
        {
          "indexed": false,
          "internalType": "address",
          "name": "",
          "type": "address"
        },
        {
          "indexed": false,
          "internalType": "address",
          "name": "",
          "type": "address"
        },
        {
          "indexed": false,
          "internalType": "string",
          "name": "",
          "type": "string"
        },
        {
          "indexed": false,
          "internalType": "uint256",
          "name": "",
          "type": "uint256"
        }
      ],
      "name": "receiverCreated",
      "type": "event"
    },
    {
      "anonymous": false,
      "inputs": [
        {
          "indexed": false,
          "internalType": "address",
          "name": "",
          "type": "address"
        },
        {
          "indexed": false,
          "internalType": "address",
          "name": "",
          "type": "address"
        },
        {
          "indexed": false,
          "internalType": "string",
          "name": "",
          "type": "string"
        },
        {
          "indexed": false,
          "internalType": "uint256",
          "name": "",
          "type": "uint256"
        }
      ],
      "name": "receiverDeleted",
      "type": "event"
    },
    {
      "anonymous": false,
      "inputs": [
        {
          "indexed": false,
          "internalType": "address",
          "name": "",
          "type": "address"
        },
        {
          "indexed": false,
          "internalType": "address",
          "name": "",
          "type": "address"
        },
        {
          "indexed": false,
          "internalType": "string",
          "name": "",
          "type": "string"
        },
        {
          "indexed": false,
          "internalType": "uint256",
          "name": "",
          "type": "uint256"
        }
      ],
      "name": "recevierModified",
      "type": "event"
    },
    {
      "inputs": [],
      "name": "viewFunds",
      "outputs": [
        {
          "internalType": "uint256",
          "name": "",
          "type": "uint256"
        }
      ],
      "stateMutability": "view",
      "type": "function"
    },
    {
      "inputs": [
        {
          "internalType": "uint256",
          "name": "_numTokens",
          "type": "uint256"
        }
      ],
      "name": "CompraTokens",
      "outputs": [],
      "stateMutability": "payable",
      "type": "function"
    },
    {
      "inputs": [
        {
          "internalType": "uint256",
          "name": "_amount",
          "type": "uint256"
        }
      ],
      "name": "Deposit",
      "outputs": [],
      "stateMutability": "payable",
      "type": "function"
    },
    {
      "inputs": [
        {
          "internalType": "uint256",
          "name": "_amount",
          "type": "uint256"
        }
      ],
      "name": "Withdraw",
      "outputs": [],
      "stateMutability": "payable",
      "type": "function"
    },
    {
      "inputs": [
        {
          "internalType": "string",
          "name": "_name",
          "type": "string"
        },
        {
          "internalType": "address",
          "name": "_address",
          "type": "address"
        },
        {
          "internalType": "uint256",
          "name": "_amount",
          "type": "uint256"
        }
      ],
      "name": "NormalPayment",
      "outputs": [],
      "stateMutability": "payable",
      "type": "function"
    },
    {
      "inputs": [
        {
          "internalType": "string",
          "name": "_name",
          "type": "string"
        },
        {
          "internalType": "address",
          "name": "_address",
          "type": "address"
        },
        {
          "internalType": "uint256",
          "name": "_amount",
          "type": "uint256"
        }
      ],
      "name": "PaymentWithDeposit",
      "outputs": [],
      "stateMutability": "payable",
      "type": "function"
    },
    {
      "inputs": [
        {
          "internalType": "string",
          "name": "_name",
          "type": "string"
        },
        {
          "internalType": "address",
          "name": "_address",
          "type": "address"
        },
        {
          "internalType": "uint256",
          "name": "_amount",
          "type": "uint256"
        }
      ],
      "name": "Payment",
      "outputs": [],
      "stateMutability": "payable",
      "type": "function"
    }
  ],
  "bytecode": "0x608060405234801561001057600080fd5b50610bb4806100206000396000f3fe6080604052600436106100705760003560e01c806388b340051161004e57806388b34005146100d8578063989f6cfd146100f4578063f777409114610110578063ff0819531461012c57610070565b8063379b2495146100755780634d6ce1e5146100a05780635b6b431d146100bc575b600080fd5b34801561008157600080fd5b5061008a610148565b6040516100979190610932565b60405180910390f35b6100ba60048036038101906100b59190610751565b61018f565b005b6100d660048036038101906100d19190610751565b6101e3565b005b6100f260048036038101906100ed91906106ea565b6102f5565b005b61010e600480360381019061010991906106ea565b61035c565b005b61012a60048036038101906101259190610751565b6104ad565b005b610146600480360381019061014191906106ea565b61057f565b005b6000600260003373ffffffffffffffffffffffffffffffffffffffff1673ffffffffffffffffffffffffffffffffffffffff16815260200190815260200160002054905090565b600061019a8261063b565b9050803410156101df576040517f08c379a00000000000000000000000000000000000000000000000000000000081526004016101d6906108f2565b60405180910390fd5b5050565b600260003373ffffffffffffffffffffffffffffffffffffffff1673ffffffffffffffffffffffffffffffffffffffff1681526020019081526020016000205481111561022f57600080fd5b60003373ffffffffffffffffffffffffffffffffffffffff168260405161025590610891565b60006040518083038185875af1925050503d8060008114610292576040519150601f19603f3d011682016040523d82523d6000602084013e610297565b606091505b5050905081600260003373ffffffffffffffffffffffffffffffffffffffff1673ffffffffffffffffffffffffffffffffffffffff16815260200190815260200160002060008282546102ea9190610a2f565b925050819055505050565b80600260003373ffffffffffffffffffffffffffffffffffffffff1673ffffffffffffffffffffffffffffffffffffffff168152602001908152602001600020541061034b5761034683838361035c565b610357565b61035683838361057f565b5b505050565b600260003373ffffffffffffffffffffffffffffffffffffffff1673ffffffffffffffffffffffffffffffffffffffff168152602001908152602001600020548111156103a857600080fd5b60008273ffffffffffffffffffffffffffffffffffffffff16826040516103ce90610891565b60006040518083038185875af1925050503d806000811461040b576040519150601f19603f3d011682016040523d82523d6000602084013e610410565b606091505b5050905081600260003373ffffffffffffffffffffffffffffffffffffffff1673ffffffffffffffffffffffffffffffffffffffff16815260200190815260200160002060008282546104639190610a2f565b925050819055507f350d157e260e646fedca979ed5f02cb41994e5f710c1fe1295459bff1830eecb3384868560405161049f94939291906108a6565b60405180910390a150505050565b60006104b88261063b565b9050803410156104fd576040517f08c379a00000000000000000000000000000000000000000000000000000000081526004016104f490610912565b60405180910390fd5b6000813461050b9190610a2f565b905060003373ffffffffffffffffffffffffffffffffffffffff168260405161053390610891565b60006040518083038185875af1925050503d8060008114610570576040519150601f19603f3d011682016040523d82523d6000602084013e610575565b606091505b5050905050505050565b8034101561058c57600080fd5b60008273ffffffffffffffffffffffffffffffffffffffff16826040516105b290610891565b60006040518083038185875af1925050503d80600081146105ef576040519150601f19603f3d011682016040523d82523d6000602084013e6105f4565b606091505b505090507f350d157e260e646fedca979ed5f02cb41994e5f710c1fe1295459bff1830eecb3384868560405161062d94939291906108a6565b60405180910390a150505050565b6000670de0b6b3a76400008261065191906109d5565b9050919050565b600061066b6106668461097e565b61094d565b90508281526020810184848401111561068357600080fd5b61068e848285610a9f565b509392505050565b6000813590506106a581610b50565b92915050565b600082601f8301126106bc57600080fd5b81356106cc848260208601610658565b91505092915050565b6000813590506106e481610b67565b92915050565b6000806000606084860312156106ff57600080fd5b600084013567ffffffffffffffff81111561071957600080fd5b610725868287016106ab565b935050602061073686828701610696565b9250506040610747868287016106d5565b9150509250925092565b60006020828403121561076357600080fd5b6000610771848285016106d5565b91505092915050565b61078381610a63565b82525050565b6000610794826109ae565b61079e81856109c4565b93506107ae818560208601610aae565b6107b781610b3f565b840191505092915050565b60006107cf6010836109c4565b91507f4e6f7420656e6f7567682066756e6473000000000000000000000000000000006000830152602082019050919050565b600061080f6000836109b9565b9150600082019050919050565b6000610829602a836109c4565b91507f436f6d707261206d656e6f7320546f6b656e73206f207061676120636f6e206d60008301527f6173204574686572732e000000000000000000000000000000000000000000006020830152604082019050919050565b61088b81610a95565b82525050565b600061089c82610802565b9150819050919050565b60006080820190506108bb600083018761077a565b6108c8602083018661077a565b81810360408301526108da8185610789565b90506108e96060830184610882565b95945050505050565b6000602082019050818103600083015261090b816107c2565b9050919050565b6000602082019050818103600083015261092b8161081c565b9050919050565b60006020820190506109476000830184610882565b92915050565b6000604051905081810181811067ffffffffffffffff8211171561097457610973610b10565b5b8060405250919050565b600067ffffffffffffffff82111561099957610998610b10565b5b601f19601f8301169050602081019050919050565b600081519050919050565b600081905092915050565b600082825260208201905092915050565b60006109e082610a95565b91506109eb83610a95565b9250817fffffffffffffffffffffffffffffffffffffffffffffffffffffffffffffffff0483118215151615610a2457610a23610ae1565b5b828202905092915050565b6000610a3a82610a95565b9150610a4583610a95565b925082821015610a5857610a57610ae1565b5b828203905092915050565b6000610a6e82610a75565b9050919050565b600073ffffffffffffffffffffffffffffffffffffffff82169050919050565b6000819050919050565b82818337600083830152505050565b60005b83811015610acc578082015181840152602081019050610ab1565b83811115610adb576000848401525b50505050565b7f4e487b7100000000000000000000000000000000000000000000000000000000600052601160045260246000fd5b7f4e487b7100000000000000000000000000000000000000000000000000000000600052604160045260246000fd5b6000601f19601f8301169050919050565b610b5981610a63565b8114610b6457600080fd5b50565b610b7081610a95565b8114610b7b57600080fd5b5056fea26469706673582212202a1f4a9f78fb549c2d4def7d364c4d62b5d8a3827e8de11ca976182ad6bfdd7c64736f6c63430008000033",
  "immutableReferences": {},
  "source": "pragma solidity ^0.8.0;\r\n\r\ncontract Payments{\r\n\r\n    //INIT VARIABLES\r\n\r\n    //Contract owner\r\n    address private owner;\r\n    \r\n    //PAYMENT VARIABLES\r\n    mapping(address => uint) balance; //balance of users wallet\r\n    mapping(address => uint) funds; //total funds deposited by a user\r\n\r\n\r\n    //EVENTS\r\n    event receiverCreated(address, address, string, uint);\r\n    event recevierModified(address, address, string, uint);\r\n    event receiverDeleted(address, address, string, uint);\r\n    event paymentDone(address, address, string, uint);\r\n\r\n\r\n    //FUNCTIONS\r\n\r\n    //----------------------------View functions---------------------------\r\n\r\n    function viewFunds() public view returns(uint){\r\n        return funds[msg.sender];\r\n    }\r\n\r\n\r\n    //---------------------------Receiver functions------------------------\r\n\r\n    //Add new receiver\r\n    /*function AddReceiver(address _dir, string memory _name, uint _amount) public {\r\n        address _user = msg.sender;\r\n        \r\n        //Check if it is a new user \r\n        bool userExists = false;\r\n        for(uint i = 0; i<users.length; i++){\r\n            if(users[i] == _user){\r\n                userExists = true;\r\n                break;\r\n            }\r\n        }\r\n        if(userExists = false){\r\n            users.push(_user);\r\n        }\r\n\r\n        //Add the receiver\r\n        Receiver[] storage _receiverArray = receivers[msg.sender];\r\n        Receiver memory _receiver = Receiver(_dir, _name, _amount);\r\n        _receiverArray.push(_receiver);\r\n        receivers[_user] = _receiverArray;\r\n\r\n        //emit event\r\n        emit receiverCreated(_user, _dir, _name, _amount);\r\n    }  */ \r\n\r\n    function EthPrice(uint _amount) internal pure returns (uint){\r\n        return _amount*(1 ether);\r\n    }\r\n\r\n    function CompraTokens(uint _numTokens) public payable {\r\n        // Calcular el coste de los tokens \r\n        uint coste = EthPrice(_numTokens);\r\n        // Se requiere que el valor de ethers pagados sea equivalente al coste \r\n        require (msg.value >= coste, \"Compra menos Tokens o paga con mas Ethers.\");\r\n        // Diferencia a pagar \r\n        uint returnValue = msg.value - coste;\r\n        // Tranferencia de la diferencia \r\n        (bool success,) = payable(msg.sender).call{value: returnValue}(\"\");\r\n    }\r\n    function Deposit(uint _amount) public payable{\r\n        uint price = EthPrice(_amount);\r\n        require(msg.value >= price, \"Not enough funds\");\r\n        //funds[msg.sender] += _amount;\r\n        //uint returnValue = msg.value - _amount;\r\n        //(bool success,) = payable(msg.sender).call{value: returnValue}(\"\");\r\n\r\n    }\r\n\r\n    function Withdraw(uint _amount) public payable{\r\n        require(_amount <= funds[msg.sender]);\r\n        (bool success,) = payable(msg.sender).call{value: _amount}(\"\");\r\n        funds[msg.sender] -= _amount;\r\n    }\r\n\r\n    function NormalPayment(string memory _name, address _address, uint _amount) public payable{\r\n        require(msg.value>=_amount);\r\n        (bool success,) = payable(_address).call{value: _amount}(\"\");\r\n        emit paymentDone(msg.sender, _address, _name, _amount);\r\n    }\r\n    //Payment automatic. Then with JS we make the payment on time.\r\n    function PaymentWithDeposit(string memory _name, address _address, uint _amount) public payable{\r\n        require(_amount <= funds[msg.sender]);\r\n        (bool success,) = payable(_address).call{value: _amount}(\"\");\r\n        funds[msg.sender] -= _amount; \r\n        emit paymentDone(msg.sender, _address, _name, _amount);\r\n    }\r\n\r\n    function Payment(string memory _name, address _address, uint _amount) public payable{\r\n        if(funds[msg.sender] >= _amount){\r\n            PaymentWithDeposit(_name, _address, _amount);\r\n        }else{            \r\n            NormalPayment(_name, _address, _amount);\r\n        }\r\n    }\r\n}",
  "sourcePath": "C:\\Users\\bruno\\Desktop\\Proyectos-Aprendizaje\\paymentsdapp\\src\\contracts\\Payments.sol",
  "compiler": {
    "name": "solc",
    "version": "0.8.0+commit.c7dfd78e.Emscripten.clang"
  },
  "schemaVersion": "3.4.7",
  "updatedAt": "2022-06-06T21:08:06.056Z",
  "devdoc": {
    "kind": "dev",
    "methods": {},
    "version": 1
  },
  "userdoc": {
    "kind": "user",
    "methods": {},
    "version": 1
  }
}