{
  "contractName": "Payments",
  "abi": [
    {
      "inputs": [],
      "stateMutability": "nonpayable",
      "type": "constructor"
    },
    {
      "anonymous": false,
      "inputs": [
        {
          "indexed": false,
          "internalType": "address",
          "name": "",
          "type": "address"
        },
        {
          "indexed": false,
          "internalType": "address",
          "name": "",
          "type": "address"
        },
        {
          "indexed": false,
          "internalType": "string",
          "name": "",
          "type": "string"
        },
        {
          "indexed": false,
          "internalType": "uint256",
          "name": "",
          "type": "uint256"
        }
      ],
      "name": "paymentDone",
      "type": "event"
    },
    {
      "anonymous": false,
      "inputs": [
        {
          "indexed": false,
          "internalType": "address",
          "name": "",
          "type": "address"
        },
        {
          "indexed": false,
          "internalType": "address",
          "name": "",
          "type": "address"
        },
        {
          "indexed": false,
          "internalType": "string",
          "name": "",
          "type": "string"
        },
        {
          "indexed": false,
          "internalType": "uint256",
          "name": "",
          "type": "uint256"
        }
      ],
      "name": "receiverCreated",
      "type": "event"
    },
    {
      "anonymous": false,
      "inputs": [
        {
          "indexed": false,
          "internalType": "address",
          "name": "",
          "type": "address"
        },
        {
          "indexed": false,
          "internalType": "address",
          "name": "",
          "type": "address"
        },
        {
          "indexed": false,
          "internalType": "string",
          "name": "",
          "type": "string"
        },
        {
          "indexed": false,
          "internalType": "uint256",
          "name": "",
          "type": "uint256"
        }
      ],
      "name": "receiverDeleted",
      "type": "event"
    },
    {
      "anonymous": false,
      "inputs": [
        {
          "indexed": false,
          "internalType": "address",
          "name": "",
          "type": "address"
        },
        {
          "indexed": false,
          "internalType": "address",
          "name": "",
          "type": "address"
        },
        {
          "indexed": false,
          "internalType": "string",
          "name": "",
          "type": "string"
        },
        {
          "indexed": false,
          "internalType": "uint256",
          "name": "",
          "type": "uint256"
        }
      ],
      "name": "recevierModified",
      "type": "event"
    },
    {
      "inputs": [],
      "name": "viewBalance",
      "outputs": [
        {
          "internalType": "uint256",
          "name": "",
          "type": "uint256"
        }
      ],
      "stateMutability": "view",
      "type": "function",
      "constant": true
    },
    {
      "inputs": [],
      "name": "viewFunds",
      "outputs": [
        {
          "internalType": "uint256",
          "name": "",
          "type": "uint256"
        }
      ],
      "stateMutability": "view",
      "type": "function",
      "constant": true
    },
    {
      "inputs": [
        {
          "internalType": "address",
          "name": "_dir",
          "type": "address"
        },
        {
          "internalType": "string",
          "name": "_name",
          "type": "string"
        },
        {
          "internalType": "uint256",
          "name": "_amount",
          "type": "uint256"
        }
      ],
      "name": "AddReceiver",
      "outputs": [],
      "stateMutability": "nonpayable",
      "type": "function"
    },
    {
      "inputs": [
        {
          "internalType": "uint256",
          "name": "_index",
          "type": "uint256"
        },
        {
          "internalType": "address",
          "name": "_dir",
          "type": "address"
        },
        {
          "internalType": "string",
          "name": "_name",
          "type": "string"
        },
        {
          "internalType": "uint256",
          "name": "_amount",
          "type": "uint256"
        }
      ],
      "name": "ModifyReceiver",
      "outputs": [],
      "stateMutability": "nonpayable",
      "type": "function"
    },
    {
      "inputs": [
        {
          "internalType": "uint256",
          "name": "_index",
          "type": "uint256"
        }
      ],
      "name": "DeleteReceiver",
      "outputs": [],
      "stateMutability": "nonpayable",
      "type": "function"
    },
    {
      "inputs": [
        {
          "internalType": "uint256",
          "name": "_index",
          "type": "uint256"
        }
      ],
      "name": "Payment",
      "outputs": [],
      "stateMutability": "payable",
      "type": "function",
      "payable": true
    },
    {
      "inputs": [
        {
          "internalType": "uint256",
          "name": "_amount",
          "type": "uint256"
        }
      ],
      "name": "Deposit",
      "outputs": [],
      "stateMutability": "payable",
      "type": "function",
      "payable": true
    },
    {
      "inputs": [
        {
          "internalType": "uint256",
          "name": "_amount",
          "type": "uint256"
        }
      ],
      "name": "Withdraw",
      "outputs": [],
      "stateMutability": "payable",
      "type": "function",
      "payable": true
    },
    {
      "inputs": [
        {
          "internalType": "uint256",
          "name": "_index",
          "type": "uint256"
        }
      ],
      "name": "PaymentWithDeposit",
      "outputs": [],
      "stateMutability": "payable",
      "type": "function",
      "payable": true
    }
  ],
  "bytecode": "0x608060405234801561001057600080fd5b50336000806101000a81548173ffffffffffffffffffffffffffffffffffffffff021916908373ffffffffffffffffffffffffffffffffffffffff160217905550611757806100606000396000f3fe6080604052600436106100865760003560e01c80635b6b431d116100595780635b6b431d1461012657806372892d8c146101425780637554cc731461016b578063d73298c514610194578063e5d5752e146101b057610086565b8063179e93771461008b578063379b2495146100b45780633ff1e05b146100df5780634d6ce1e51461010a575b600080fd5b34801561009757600080fd5b506100b260048036038101906100ad9190611171565b6101cc565b005b3480156100c057600080fd5b506100c96104ad565b6040516100d6919061141a565b60405180910390f35b3480156100eb57600080fd5b506100f46104f4565b604051610101919061141a565b60405180910390f35b610124600480360381019061011f91906111d8565b610513565b005b610140600480360381019061013b91906111d8565b610578565b005b34801561014e57600080fd5b50610169600480360381019061016491906111d8565b61068a565b005b34801561017757600080fd5b50610192600480360381019061018d9190611201565b61075a565b005b6101ae60048036038101906101a991906111d8565b610760565b005b6101ca60048036038101906101c591906111d8565b610a58565b005b60003390506000805b600180549050811015610296578273ffffffffffffffffffffffffffffffffffffffff1660018281548110610233577f4e487b7100000000000000000000000000000000000000000000000000000000600052603260045260246000fd5b9060005260206000200160009054906101000a900473ffffffffffffffffffffffffffffffffffffffff1673ffffffffffffffffffffffffffffffffffffffff1614156102835760019150610296565b808061028e9061160c565b9150506101d5565b50600090508015610305576001829080600181540180825580915050600190039060005260206000200160009091909190916101000a81548173ffffffffffffffffffffffffffffffffffffffff021916908373ffffffffffffffffffffffffffffffffffffffff1602179055505b6000600260003373ffffffffffffffffffffffffffffffffffffffff1673ffffffffffffffffffffffffffffffffffffffff1681526020019081526020016000209050600060405180606001604052808873ffffffffffffffffffffffffffffffffffffffff1681526020018781526020018681525090508181908060018154018082558091505060019003906000526020600020906003020160009091909190915060008201518160000160006101000a81548173ffffffffffffffffffffffffffffffffffffffff021916908373ffffffffffffffffffffffffffffffffffffffff160217905550602082015181600101908051906020019061040b929190610e30565b5060408201518160020155505081600260008673ffffffffffffffffffffffffffffffffffffffff1673ffffffffffffffffffffffffffffffffffffffff168152602001908152602001600020908054610466929190610eb6565b507f233e1e3c7b8f474576519c805befe1dacf549ca9038f10e91269eb48bbae71df8488888860405161049c9493929190611382565b60405180910390a150505050505050565b6000600560003373ffffffffffffffffffffffffffffffffffffffff1673ffffffffffffffffffffffffffffffffffffffff16815260200190815260200160002054905090565b60003373ffffffffffffffffffffffffffffffffffffffff1631905090565b80341461051f57600080fd5b80600560003373ffffffffffffffffffffffffffffffffffffffff1673ffffffffffffffffffffffffffffffffffffffff168152602001908152602001600020600082825461056e91906114d2565b9250508190555050565b600560003373ffffffffffffffffffffffffffffffffffffffff1673ffffffffffffffffffffffffffffffffffffffff168152602001908152602001600020548111156105c457600080fd5b60003373ffffffffffffffffffffffffffffffffffffffff16826040516105ea9061136d565b60006040518083038185875af1925050503d8060008114610627576040519150601f19603f3d011682016040523d82523d6000602084013e61062c565b606091505b5050905081600560003373ffffffffffffffffffffffffffffffffffffffff1673ffffffffffffffffffffffffffffffffffffffff168152602001908152602001600020600082825461067f9190611528565b925050819055505050565b6000600260003373ffffffffffffffffffffffffffffffffffffffff1673ffffffffffffffffffffffffffffffffffffffff1681526020019081526020016000209050808281548110610706577f4e487b7100000000000000000000000000000000000000000000000000000000600052603260045260246000fd5b9060005260206000209060030201600080820160006101000a81549073ffffffffffffffffffffffffffffffffffffffff021916905560018201600061074c9190610f9f565b600282016000905550505050565b50505050565b6000600260003373ffffffffffffffffffffffffffffffffffffffff1673ffffffffffffffffffffffffffffffffffffffff16815260200190815260200160002090508082815481106107dc577f4e487b7100000000000000000000000000000000000000000000000000000000600052603260045260246000fd5b90600052602060002090600302016002015434146107f957600080fd5b6000818381548110610834577f4e487b7100000000000000000000000000000000000000000000000000000000600052603260045260246000fd5b906000526020600020906003020160000160009054906101000a900473ffffffffffffffffffffffffffffffffffffffff1673ffffffffffffffffffffffffffffffffffffffff168284815481106108b5577f4e487b7100000000000000000000000000000000000000000000000000000000600052603260045260246000fd5b9060005260206000209060030201600201546040516108d39061136d565b60006040518083038185875af1925050503d8060008114610910576040519150601f19603f3d011682016040523d82523d6000602084013e610915565b606091505b505090507f350d157e260e646fedca979ed5f02cb41994e5f710c1fe1295459bff1830eecb33838581548110610974577f4e487b7100000000000000000000000000000000000000000000000000000000600052603260045260246000fd5b906000526020600020906003020160000160009054906101000a900473ffffffffffffffffffffffffffffffffffffffff168486815481106109df577f4e487b7100000000000000000000000000000000000000000000000000000000600052603260045260246000fd5b9060005260206000209060030201600101858781548110610a29577f4e487b7100000000000000000000000000000000000000000000000000000000600052603260045260246000fd5b906000526020600020906003020160020154604051610a4b94939291906113ce565b60405180910390a1505050565b6000600260003373ffffffffffffffffffffffffffffffffffffffff1673ffffffffffffffffffffffffffffffffffffffff1681526020019081526020016000209050600560003373ffffffffffffffffffffffffffffffffffffffff1673ffffffffffffffffffffffffffffffffffffffff16815260200190815260200160002054818381548110610b14577f4e487b7100000000000000000000000000000000000000000000000000000000600052603260045260246000fd5b9060005260206000209060030201600201541115610b3157600080fd5b6000818381548110610b6c577f4e487b7100000000000000000000000000000000000000000000000000000000600052603260045260246000fd5b906000526020600020906003020160000160009054906101000a900473ffffffffffffffffffffffffffffffffffffffff1673ffffffffffffffffffffffffffffffffffffffff16828481548110610bed577f4e487b7100000000000000000000000000000000000000000000000000000000600052603260045260246000fd5b906000526020600020906003020160020154604051610c0b9061136d565b60006040518083038185875af1925050503d8060008114610c48576040519150601f19603f3d011682016040523d82523d6000602084013e610c4d565b606091505b50509050818381548110610c8a577f4e487b7100000000000000000000000000000000000000000000000000000000600052603260045260246000fd5b906000526020600020906003020160020154600560003373ffffffffffffffffffffffffffffffffffffffff1673ffffffffffffffffffffffffffffffffffffffff1681526020019081526020016000206000828254610cea9190611528565b925050819055507f350d157e260e646fedca979ed5f02cb41994e5f710c1fe1295459bff1830eecb33838581548110610d4c577f4e487b7100000000000000000000000000000000000000000000000000000000600052603260045260246000fd5b906000526020600020906003020160000160009054906101000a900473ffffffffffffffffffffffffffffffffffffffff16848681548110610db7577f4e487b7100000000000000000000000000000000000000000000000000000000600052603260045260246000fd5b9060005260206000209060030201600101858781548110610e01577f4e487b7100000000000000000000000000000000000000000000000000000000600052603260045260246000fd5b906000526020600020906003020160020154604051610e2394939291906113ce565b60405180910390a1505050565b828054610e3c906115da565b90600052602060002090601f016020900481019282610e5e5760008555610ea5565b82601f10610e7757805160ff1916838001178555610ea5565b82800160010185558215610ea5579182015b82811115610ea4578251825591602001919060010190610e89565b5b509050610eb29190610fdf565b5090565b828054828255906000526020600020906003028101928215610f8e5760005260206000209160030282015b82811115610f8d5782826000820160009054906101000a900473ffffffffffffffffffffffffffffffffffffffff168160000160006101000a81548173ffffffffffffffffffffffffffffffffffffffff021916908373ffffffffffffffffffffffffffffffffffffffff1602179055506001820181600101908054610f66906115da565b610f71929190610ffc565b5060028201548160020155505091600301919060030190610ee1565b5b509050610f9b9190611089565b5090565b508054610fab906115da565b6000825580601f10610fbd5750610fdc565b601f016020900490600052602060002090810190610fdb9190610fdf565b5b50565b5b80821115610ff8576000816000905550600101610fe0565b5090565b828054611008906115da565b90600052602060002090601f01602090048101928261102a5760008555611078565b82601f1061103b5780548555611078565b8280016001018555821561107857600052602060002091601f016020900482015b8281111561107757825482559160010191906001019061105c565b5b5090506110859190610fdf565b5090565b5b808211156110db57600080820160006101000a81549073ffffffffffffffffffffffffffffffffffffffff02191690556001820160006110ca9190610f9f565b60028201600090555060030161108a565b5090565b60006110f26110ed84611466565b611435565b90508281526020810184848401111561110a57600080fd5b611115848285611598565b509392505050565b60008135905061112c816116f3565b92915050565b600082601f83011261114357600080fd5b81356111538482602086016110df565b91505092915050565b60008135905061116b8161170a565b92915050565b60008060006060848603121561118657600080fd5b60006111948682870161111d565b935050602084013567ffffffffffffffff8111156111b157600080fd5b6111bd86828701611132565b92505060406111ce8682870161115c565b9150509250925092565b6000602082840312156111ea57600080fd5b60006111f88482850161115c565b91505092915050565b6000806000806080858703121561121757600080fd5b60006112258782880161115c565b94505060206112368782880161111d565b935050604085013567ffffffffffffffff81111561125357600080fd5b61125f87828801611132565b92505060606112708782880161115c565b91505092959194509250565b6112858161155c565b82525050565b6000611296826114ab565b6112a081856114c1565b93506112b08185602086016115a7565b6112b9816116e2565b840191505092915050565b600081546112d1816115da565b6112db81866114c1565b945060018216600081146112f657600181146113085761133b565b60ff198316865260208601935061133b565b61131185611496565b60005b8381101561133357815481890152600182019150602081019050611314565b808801955050505b50505092915050565b60006113516000836114b6565b9150600082019050919050565b6113678161158e565b82525050565b600061137882611344565b9150819050919050565b6000608082019050611397600083018761127c565b6113a4602083018661127c565b81810360408301526113b6818561128b565b90506113c5606083018461135e565b95945050505050565b60006080820190506113e3600083018761127c565b6113f0602083018661127c565b818103604083015261140281856112c4565b9050611411606083018461135e565b95945050505050565b600060208201905061142f600083018461135e565b92915050565b6000604051905081810181811067ffffffffffffffff8211171561145c5761145b6116b3565b5b8060405250919050565b600067ffffffffffffffff821115611481576114806116b3565b5b601f19601f8301169050602081019050919050565b60008190508160005260206000209050919050565b600081519050919050565b600081905092915050565b600082825260208201905092915050565b60006114dd8261158e565b91506114e88361158e565b9250827fffffffffffffffffffffffffffffffffffffffffffffffffffffffffffffffff0382111561151d5761151c611655565b5b828201905092915050565b60006115338261158e565b915061153e8361158e565b92508282101561155157611550611655565b5b828203905092915050565b60006115678261156e565b9050919050565b600073ffffffffffffffffffffffffffffffffffffffff82169050919050565b6000819050919050565b82818337600083830152505050565b60005b838110156115c55780820151818401526020810190506115aa565b838111156115d4576000848401525b50505050565b600060028204905060018216806115f257607f821691505b6020821081141561160657611605611684565b5b50919050565b60006116178261158e565b91507fffffffffffffffffffffffffffffffffffffffffffffffffffffffffffffffff82141561164a57611649611655565b5b600182019050919050565b7f4e487b7100000000000000000000000000000000000000000000000000000000600052601160045260246000fd5b7f4e487b7100000000000000000000000000000000000000000000000000000000600052602260045260246000fd5b7f4e487b7100000000000000000000000000000000000000000000000000000000600052604160045260246000fd5b6000601f19601f8301169050919050565b6116fc8161155c565b811461170757600080fd5b50565b6117138161158e565b811461171e57600080fd5b5056fea26469706673582212204c88fcd2f1ecef181e9873f2980666407c000c7cbdf9873778bea1651dca430964736f6c63430008000033",
  "immutableReferences": {},
  "source": "pragma solidity >=0.4.22 <0.9.0;\r\n\r\ncontract Payments{\r\n\r\n    //INIT VARIABLES\r\n\r\n    //Contract owner\r\n    address private owner;\r\n    \r\n    //USER VARIABLES\r\n    address[] users;\r\n    struct Receiver{\r\n        address dir;\r\n        string name;\r\n        uint amount;\r\n    }\r\n    mapping(address => Receiver[]) receivers;\r\n    mapping(address => address[]) adminAddresses;   \r\n\r\n    //PAYMENT VARIABLES\r\n    mapping(address => uint) balance; //balance of users wallet\r\n    mapping(address => uint) funds; //total funds deposited by a user\r\n\r\n\r\n    //EVENTS\r\n    event receiverCreated(address, address, string, uint);\r\n    event recevierModified(address, address, string, uint);\r\n    event receiverDeleted(address, address, string, uint);\r\n    event paymentDone(address, address, string, uint);\r\n\r\n\r\n    //CONTRACT VARIABLES\r\n    \r\n    constructor(){\r\n        owner = msg.sender;\r\n    }\r\n\r\n    //FUNCTIONS\r\n\r\n    //----------------------------View functions---------------------------\r\n\r\n    function viewBalance() public view returns(uint){\r\n        return msg.sender.balance;\r\n    }\r\n\r\n    function viewFunds() public view returns(uint){\r\n        return funds[msg.sender];\r\n    }\r\n\r\n    //--------------------------Other functions----------------------------\r\n\r\n\r\n    //---------------------------Receiver functions------------------------\r\n\r\n    //Add new receiver\r\n    function AddReceiver(address _dir, string memory _name, uint _amount) public {\r\n        address _user = msg.sender;\r\n        \r\n        //Check if it is a new user \r\n        bool userExists = false;\r\n        for(uint i = 0; i<users.length; i++){\r\n            if(users[i] == _user){\r\n                userExists = true;\r\n                break;\r\n            }\r\n        }\r\n        if(userExists = false){\r\n            users.push(_user);\r\n        }\r\n\r\n        //Add the receiver\r\n        Receiver[] storage _receiverArray = receivers[msg.sender];\r\n        Receiver memory _receiver = Receiver(_dir, _name, _amount);\r\n        _receiverArray.push(_receiver);\r\n        receivers[_user] = _receiverArray;\r\n\r\n        //emit event\r\n        emit receiverCreated(_user, _dir, _name, _amount);\r\n    }   \r\n\r\n    //Modify receiver\r\n    function ModifyReceiver(uint _index, address _dir, string memory _name, uint _amount) public {\r\n\r\n    }\r\n\r\n    //REVISAR\r\n    //Delete receiver\r\n    function DeleteReceiver(uint _index) public{\r\n        Receiver[] storage _receiverArray = receivers[msg.sender];\r\n        delete _receiverArray[_index];\r\n        //HACER\r\n    }\r\n\r\n    //--------------------Payment functions------------------------\r\n    \r\n    //Function payment\r\n    function Payment(uint _index) payable public{\r\n        Receiver[] storage _receiverArray = receivers[msg.sender];\r\n        //Enviar al contrato\r\n        require(msg.value == _receiverArray[_index].amount);\r\n        //Del contrato al usuario\r\n        (bool success,) = payable(_receiverArray[_index].dir).call{value: _receiverArray[_index].amount}(\"\");\r\n        emit paymentDone(msg.sender, _receiverArray[_index].dir, _receiverArray[_index].name, _receiverArray[_index].amount);\r\n    }\r\n\r\n    function Deposit(uint _amount) payable public{\r\n        require(msg.value == _amount);\r\n        funds[msg.sender] += _amount;\r\n    }\r\n\r\n    function Withdraw(uint _amount) payable public{\r\n        require(_amount <= funds[msg.sender]);\r\n        (bool success,) = payable(msg.sender).call{value: _amount}(\"\");\r\n        funds[msg.sender] -= _amount;\r\n    }\r\n\r\n    //Payment automatic. Then with JS we make the payment on time.\r\n    function PaymentWithDeposit(uint _index) payable public{\r\n        Receiver[] storage _receiverArray = receivers[msg.sender];\r\n        require(_receiverArray[_index].amount <= funds[msg.sender]);\r\n        (bool success,) = payable(_receiverArray[_index].dir).call{value: _receiverArray[_index].amount}(\"\");\r\n        funds[msg.sender] -= _receiverArray[_index].amount; \r\n        emit paymentDone(msg.sender, _receiverArray[_index].dir, _receiverArray[_index].name, _receiverArray[_index].amount);\r\n    }\r\n\r\n}",
  "sourcePath": "C:\\Users\\bruno\\Desktop\\Proyectos-Aprendizaje\\paymentsdapp\\src\\contracts\\Payments.sol",
  "compiler": {
    "name": "solc",
    "version": "0.8.0+commit.c7dfd78e.Emscripten.clang"
  },
  "schemaVersion": "3.4.7",
  "updatedAt": "2022-05-01T17:38:12.615Z",
  "networkType": "ethereum",
  "devdoc": {
    "kind": "dev",
    "methods": {},
    "version": 1
  },
  "userdoc": {
    "kind": "user",
    "methods": {},
    "version": 1
  }
}