{
  "contractName": "Payments",
  "abi": [
    {
      "inputs": [],
      "stateMutability": "nonpayable",
      "type": "constructor"
    },
    {
      "anonymous": false,
      "inputs": [
        {
          "indexed": false,
          "internalType": "address",
          "name": "",
          "type": "address"
        },
        {
          "indexed": false,
          "internalType": "address",
          "name": "",
          "type": "address"
        },
        {
          "indexed": false,
          "internalType": "string",
          "name": "",
          "type": "string"
        },
        {
          "indexed": false,
          "internalType": "uint256",
          "name": "",
          "type": "uint256"
        }
      ],
      "name": "paymentDone",
      "type": "event"
    },
    {
      "anonymous": false,
      "inputs": [
        {
          "indexed": false,
          "internalType": "address",
          "name": "",
          "type": "address"
        },
        {
          "indexed": false,
          "internalType": "address",
          "name": "",
          "type": "address"
        },
        {
          "indexed": false,
          "internalType": "string",
          "name": "",
          "type": "string"
        },
        {
          "indexed": false,
          "internalType": "uint256",
          "name": "",
          "type": "uint256"
        }
      ],
      "name": "receiverCreated",
      "type": "event"
    },
    {
      "anonymous": false,
      "inputs": [
        {
          "indexed": false,
          "internalType": "address",
          "name": "",
          "type": "address"
        },
        {
          "indexed": false,
          "internalType": "address",
          "name": "",
          "type": "address"
        },
        {
          "indexed": false,
          "internalType": "string",
          "name": "",
          "type": "string"
        },
        {
          "indexed": false,
          "internalType": "uint256",
          "name": "",
          "type": "uint256"
        }
      ],
      "name": "receiverDeleted",
      "type": "event"
    },
    {
      "anonymous": false,
      "inputs": [
        {
          "indexed": false,
          "internalType": "address",
          "name": "",
          "type": "address"
        },
        {
          "indexed": false,
          "internalType": "address",
          "name": "",
          "type": "address"
        },
        {
          "indexed": false,
          "internalType": "string",
          "name": "",
          "type": "string"
        },
        {
          "indexed": false,
          "internalType": "uint256",
          "name": "",
          "type": "uint256"
        }
      ],
      "name": "recevierModified",
      "type": "event"
    },
    {
      "inputs": [],
      "name": "viewBalance",
      "outputs": [
        {
          "internalType": "uint256",
          "name": "",
          "type": "uint256"
        }
      ],
      "stateMutability": "view",
      "type": "function"
    },
    {
      "inputs": [],
      "name": "viewFunds",
      "outputs": [
        {
          "internalType": "uint256",
          "name": "",
          "type": "uint256"
        }
      ],
      "stateMutability": "view",
      "type": "function"
    },
    {
      "inputs": [
        {
          "internalType": "address",
          "name": "_dir",
          "type": "address"
        },
        {
          "internalType": "string",
          "name": "_name",
          "type": "string"
        },
        {
          "internalType": "uint256",
          "name": "_amount",
          "type": "uint256"
        }
      ],
      "name": "AddReceiver",
      "outputs": [],
      "stateMutability": "nonpayable",
      "type": "function"
    },
    {
      "inputs": [
        {
          "internalType": "uint256",
          "name": "_index",
          "type": "uint256"
        },
        {
          "internalType": "address",
          "name": "_dir",
          "type": "address"
        },
        {
          "internalType": "string",
          "name": "_name",
          "type": "string"
        },
        {
          "internalType": "uint256",
          "name": "_amount",
          "type": "uint256"
        }
      ],
      "name": "ModifyReceiver",
      "outputs": [],
      "stateMutability": "nonpayable",
      "type": "function"
    },
    {
      "inputs": [
        {
          "internalType": "uint256",
          "name": "_index",
          "type": "uint256"
        }
      ],
      "name": "DeleteReceiver",
      "outputs": [],
      "stateMutability": "nonpayable",
      "type": "function"
    },
    {
      "inputs": [
        {
          "internalType": "uint256",
          "name": "_amount",
          "type": "uint256"
        }
      ],
      "name": "Deposit",
      "outputs": [],
      "stateMutability": "payable",
      "type": "function"
    },
    {
      "inputs": [
        {
          "internalType": "uint256",
          "name": "_amount",
          "type": "uint256"
        }
      ],
      "name": "Withdraw",
      "outputs": [],
      "stateMutability": "payable",
      "type": "function"
    },
    {
      "inputs": [
        {
          "internalType": "string",
          "name": "_name",
          "type": "string"
        },
        {
          "internalType": "address",
          "name": "_address",
          "type": "address"
        },
        {
          "internalType": "uint256",
          "name": "_amount",
          "type": "uint256"
        }
      ],
      "name": "NormalPayment",
      "outputs": [],
      "stateMutability": "payable",
      "type": "function"
    },
    {
      "inputs": [
        {
          "internalType": "string",
          "name": "_name",
          "type": "string"
        },
        {
          "internalType": "address",
          "name": "_address",
          "type": "address"
        },
        {
          "internalType": "uint256",
          "name": "_amount",
          "type": "uint256"
        }
      ],
      "name": "PaymentWithDeposit",
      "outputs": [],
      "stateMutability": "payable",
      "type": "function"
    },
    {
      "inputs": [
        {
          "internalType": "string",
          "name": "_name",
          "type": "string"
        },
        {
          "internalType": "address",
          "name": "_address",
          "type": "address"
        },
        {
          "internalType": "uint256",
          "name": "_amount",
          "type": "uint256"
        }
      ],
      "name": "Payment",
      "outputs": [],
      "stateMutability": "payable",
      "type": "function"
    }
  ],
  "bytecode": "0x608060405234801561001057600080fd5b50336000806101000a81548173ffffffffffffffffffffffffffffffffffffffff021916908373ffffffffffffffffffffffffffffffffffffffff1602179055506112a7806100606000396000f3fe6080604052600436106100915760003560e01c806372892d8c1161005957806372892d8c1461014d5780637554cc731461017657806388b340051461019f578063989f6cfd146101bb578063ff081953146101d757610091565b8063179e937714610096578063379b2495146100bf5780633ff1e05b146100ea5780634d6ce1e5146101155780635b6b431d14610131575b600080fd5b3480156100a257600080fd5b506100bd60048036038101906100b89190610d3b565b6101f3565b005b3480156100cb57600080fd5b506100d46104d4565b6040516100e19190610f7f565b60405180910390f35b3480156100f657600080fd5b506100ff61051b565b60405161010c9190610f7f565b60405180910390f35b61012f600480360381019061012a9190610e09565b61053a565b005b61014b60048036038101906101469190610e09565b61059f565b005b34801561015957600080fd5b50610174600480360381019061016f9190610e09565b6106b1565b005b34801561018257600080fd5b5061019d60048036038101906101989190610e32565b610781565b005b6101b960048036038101906101b49190610da2565b610787565b005b6101d560048036038101906101d09190610da2565b6107ee565b005b6101f160048036038101906101ec9190610da2565b61093f565b005b60003390506000805b6001805490508110156102bd578273ffffffffffffffffffffffffffffffffffffffff166001828154811061025a577f4e487b7100000000000000000000000000000000000000000000000000000000600052603260045260246000fd5b9060005260206000200160009054906101000a900473ffffffffffffffffffffffffffffffffffffffff1673ffffffffffffffffffffffffffffffffffffffff1614156102aa57600191506102bd565b80806102b59061115c565b9150506101fc565b5060009050801561032c576001829080600181540180825580915050600190039060005260206000200160009091909190916101000a81548173ffffffffffffffffffffffffffffffffffffffff021916908373ffffffffffffffffffffffffffffffffffffffff1602179055505b6000600260003373ffffffffffffffffffffffffffffffffffffffff1673ffffffffffffffffffffffffffffffffffffffff1681526020019081526020016000209050600060405180606001604052808873ffffffffffffffffffffffffffffffffffffffff1681526020018781526020018681525090508181908060018154018082558091505060019003906000526020600020906003020160009091909190915060008201518160000160006101000a81548173ffffffffffffffffffffffffffffffffffffffff021916908373ffffffffffffffffffffffffffffffffffffffff16021790555060208201518160010190805190602001906104329291906109fa565b5060408201518160020155505081600260008673ffffffffffffffffffffffffffffffffffffffff1673ffffffffffffffffffffffffffffffffffffffff16815260200190815260200160002090805461048d929190610a80565b507f233e1e3c7b8f474576519c805befe1dacf549ca9038f10e91269eb48bbae71df848888886040516104c39493929190610f33565b60405180910390a150505050505050565b6000600560003373ffffffffffffffffffffffffffffffffffffffff1673ffffffffffffffffffffffffffffffffffffffff16815260200190815260200160002054905090565b60003373ffffffffffffffffffffffffffffffffffffffff1631905090565b80341461054657600080fd5b80600560003373ffffffffffffffffffffffffffffffffffffffff1673ffffffffffffffffffffffffffffffffffffffff16815260200190815260200160002060008282546105959190611022565b9250508190555050565b600560003373ffffffffffffffffffffffffffffffffffffffff1673ffffffffffffffffffffffffffffffffffffffff168152602001908152602001600020548111156105eb57600080fd5b60003373ffffffffffffffffffffffffffffffffffffffff168260405161061190610f1e565b60006040518083038185875af1925050503d806000811461064e576040519150601f19603f3d011682016040523d82523d6000602084013e610653565b606091505b5050905081600560003373ffffffffffffffffffffffffffffffffffffffff1673ffffffffffffffffffffffffffffffffffffffff16815260200190815260200160002060008282546106a69190611078565b925050819055505050565b6000600260003373ffffffffffffffffffffffffffffffffffffffff1673ffffffffffffffffffffffffffffffffffffffff168152602001908152602001600020905080828154811061072d577f4e487b7100000000000000000000000000000000000000000000000000000000600052603260045260246000fd5b9060005260206000209060030201600080820160006101000a81549073ffffffffffffffffffffffffffffffffffffffff02191690556001820160006107739190610b69565b600282016000905550505050565b50505050565b80600560003373ffffffffffffffffffffffffffffffffffffffff1673ffffffffffffffffffffffffffffffffffffffff16815260200190815260200160002054106107dd576107d88383836107ee565b6107e9565b6107e883838361093f565b5b505050565b600560003373ffffffffffffffffffffffffffffffffffffffff1673ffffffffffffffffffffffffffffffffffffffff1681526020019081526020016000205481111561083a57600080fd5b60008273ffffffffffffffffffffffffffffffffffffffff168260405161086090610f1e565b60006040518083038185875af1925050503d806000811461089d576040519150601f19603f3d011682016040523d82523d6000602084013e6108a2565b606091505b5050905081600560003373ffffffffffffffffffffffffffffffffffffffff1673ffffffffffffffffffffffffffffffffffffffff16815260200190815260200160002060008282546108f59190611078565b925050819055507f350d157e260e646fedca979ed5f02cb41994e5f710c1fe1295459bff1830eecb338486856040516109319493929190610f33565b60405180910390a150505050565b80341461094b57600080fd5b60008273ffffffffffffffffffffffffffffffffffffffff168260405161097190610f1e565b60006040518083038185875af1925050503d80600081146109ae576040519150601f19603f3d011682016040523d82523d6000602084013e6109b3565b606091505b505090507f350d157e260e646fedca979ed5f02cb41994e5f710c1fe1295459bff1830eecb338486856040516109ec9493929190610f33565b60405180910390a150505050565b828054610a069061112a565b90600052602060002090601f016020900481019282610a285760008555610a6f565b82601f10610a4157805160ff1916838001178555610a6f565b82800160010185558215610a6f579182015b82811115610a6e578251825591602001919060010190610a53565b5b509050610a7c9190610ba9565b5090565b828054828255906000526020600020906003028101928215610b585760005260206000209160030282015b82811115610b575782826000820160009054906101000a900473ffffffffffffffffffffffffffffffffffffffff168160000160006101000a81548173ffffffffffffffffffffffffffffffffffffffff021916908373ffffffffffffffffffffffffffffffffffffffff1602179055506001820181600101908054610b309061112a565b610b3b929190610bc6565b5060028201548160020155505091600301919060030190610aab565b5b509050610b659190610c53565b5090565b508054610b759061112a565b6000825580601f10610b875750610ba6565b601f016020900490600052602060002090810190610ba59190610ba9565b5b50565b5b80821115610bc2576000816000905550600101610baa565b5090565b828054610bd29061112a565b90600052602060002090601f016020900481019282610bf45760008555610c42565b82601f10610c055780548555610c42565b82800160010185558215610c4257600052602060002091601f016020900482015b82811115610c41578254825591600101919060010190610c26565b5b509050610c4f9190610ba9565b5090565b5b80821115610ca557600080820160006101000a81549073ffffffffffffffffffffffffffffffffffffffff0219169055600182016000610c949190610b69565b600282016000905550600301610c54565b5090565b6000610cbc610cb784610fcb565b610f9a565b905082815260208101848484011115610cd457600080fd5b610cdf8482856110e8565b509392505050565b600081359050610cf681611243565b92915050565b600082601f830112610d0d57600080fd5b8135610d1d848260208601610ca9565b91505092915050565b600081359050610d358161125a565b92915050565b600080600060608486031215610d5057600080fd5b6000610d5e86828701610ce7565b935050602084013567ffffffffffffffff811115610d7b57600080fd5b610d8786828701610cfc565b9250506040610d9886828701610d26565b9150509250925092565b600080600060608486031215610db757600080fd5b600084013567ffffffffffffffff811115610dd157600080fd5b610ddd86828701610cfc565b9350506020610dee86828701610ce7565b9250506040610dff86828701610d26565b9150509250925092565b600060208284031215610e1b57600080fd5b6000610e2984828501610d26565b91505092915050565b60008060008060808587031215610e4857600080fd5b6000610e5687828801610d26565b9450506020610e6787828801610ce7565b935050604085013567ffffffffffffffff811115610e8457600080fd5b610e9087828801610cfc565b9250506060610ea187828801610d26565b91505092959194509250565b610eb6816110ac565b82525050565b6000610ec782610ffb565b610ed18185611011565b9350610ee18185602086016110f7565b610eea81611232565b840191505092915050565b6000610f02600083611006565b9150600082019050919050565b610f18816110de565b82525050565b6000610f2982610ef5565b9150819050919050565b6000608082019050610f486000830187610ead565b610f556020830186610ead565b8181036040830152610f678185610ebc565b9050610f766060830184610f0f565b95945050505050565b6000602082019050610f946000830184610f0f565b92915050565b6000604051905081810181811067ffffffffffffffff82111715610fc157610fc0611203565b5b8060405250919050565b600067ffffffffffffffff821115610fe657610fe5611203565b5b601f19601f8301169050602081019050919050565b600081519050919050565b600081905092915050565b600082825260208201905092915050565b600061102d826110de565b9150611038836110de565b9250827fffffffffffffffffffffffffffffffffffffffffffffffffffffffffffffffff0382111561106d5761106c6111a5565b5b828201905092915050565b6000611083826110de565b915061108e836110de565b9250828210156110a1576110a06111a5565b5b828203905092915050565b60006110b7826110be565b9050919050565b600073ffffffffffffffffffffffffffffffffffffffff82169050919050565b6000819050919050565b82818337600083830152505050565b60005b838110156111155780820151818401526020810190506110fa565b83811115611124576000848401525b50505050565b6000600282049050600182168061114257607f821691505b60208210811415611156576111556111d4565b5b50919050565b6000611167826110de565b91507fffffffffffffffffffffffffffffffffffffffffffffffffffffffffffffffff82141561119a576111996111a5565b5b600182019050919050565b7f4e487b7100000000000000000000000000000000000000000000000000000000600052601160045260246000fd5b7f4e487b7100000000000000000000000000000000000000000000000000000000600052602260045260246000fd5b7f4e487b7100000000000000000000000000000000000000000000000000000000600052604160045260246000fd5b6000601f19601f8301169050919050565b61124c816110ac565b811461125757600080fd5b50565b611263816110de565b811461126e57600080fd5b5056fea2646970667358221220b40c043c0de88dd7daa3a59b901e234386b6bbfa98ac011202f8ac4df0f5731164736f6c63430008000033",
  "immutableReferences": {},
  "source": "pragma solidity >=0.4.22 <0.9.0;\r\n\r\ncontract Payments{\r\n\r\n    //INIT VARIABLES\r\n\r\n    //Contract owner\r\n    address private owner;\r\n    \r\n    //USER VARIABLES\r\n    address[] users;\r\n    struct Receiver{\r\n        address dir;\r\n        string name;\r\n        uint amount;\r\n    }\r\n    mapping(address => Receiver[]) receivers;\r\n    mapping(address => address[]) adminAddresses;   \r\n\r\n    //PAYMENT VARIABLES\r\n    mapping(address => uint) balance; //balance of users wallet\r\n    mapping(address => uint) funds; //total funds deposited by a user\r\n\r\n\r\n    //EVENTS\r\n    event receiverCreated(address, address, string, uint);\r\n    event recevierModified(address, address, string, uint);\r\n    event receiverDeleted(address, address, string, uint);\r\n    event paymentDone(address, address, string, uint);\r\n\r\n\r\n    //CONTRACT VARIABLES\r\n    \r\n    constructor(){\r\n        owner = msg.sender;\r\n    }\r\n\r\n    //FUNCTIONS\r\n\r\n    //----------------------------View functions---------------------------\r\n\r\n    function viewBalance() public view returns(uint){\r\n        return msg.sender.balance;\r\n    }\r\n\r\n    function viewFunds() public view returns(uint){\r\n        return funds[msg.sender];\r\n    }\r\n\r\n    //--------------------------Other functions----------------------------\r\n\r\n\r\n    //---------------------------Receiver functions------------------------\r\n\r\n    //Add new receiver\r\n    function AddReceiver(address _dir, string memory _name, uint _amount) public {\r\n        address _user = msg.sender;\r\n        \r\n        //Check if it is a new user \r\n        bool userExists = false;\r\n        for(uint i = 0; i<users.length; i++){\r\n            if(users[i] == _user){\r\n                userExists = true;\r\n                break;\r\n            }\r\n        }\r\n        if(userExists = false){\r\n            users.push(_user);\r\n        }\r\n\r\n        //Add the receiver\r\n        Receiver[] storage _receiverArray = receivers[msg.sender];\r\n        Receiver memory _receiver = Receiver(_dir, _name, _amount);\r\n        _receiverArray.push(_receiver);\r\n        receivers[_user] = _receiverArray;\r\n\r\n        //emit event\r\n        emit receiverCreated(_user, _dir, _name, _amount);\r\n    }   \r\n\r\n    //Modify receiver\r\n    function ModifyReceiver(uint _index, address _dir, string memory _name, uint _amount) public {\r\n\r\n    }\r\n\r\n    //REVISAR\r\n    //Delete receiver\r\n    function DeleteReceiver(uint _index) public{\r\n        Receiver[] storage _receiverArray = receivers[msg.sender];\r\n        delete _receiverArray[_index];\r\n        //HACER\r\n    }\r\n\r\n    //--------------------Payment functions------------------------\r\n    \r\n    //Function payment\r\n    /*function Payment(uint _index) payable public{\r\n        Receiver[] storage _receiverArray = receivers[msg.sender];\r\n        //Enviar al contrato\r\n        require(msg.value == _receiverArray[_index].amount);\r\n        //Del contrato al usuario\r\n        (bool success,) = payable(_receiverArray[_index].dir).call{value: _receiverArray[_index].amount}(\"\");\r\n        emit paymentDone(msg.sender, _receiverArray[_index].dir, _receiverArray[_index].name, _receiverArray[_index].amount);\r\n    }*/\r\n\r\n\r\n    function Deposit(uint _amount) payable public{\r\n        require(msg.value == _amount);\r\n        funds[msg.sender] += _amount;\r\n    }\r\n\r\n    function Withdraw(uint _amount) payable public{\r\n        require(_amount <= funds[msg.sender]);\r\n        (bool success,) = payable(msg.sender).call{value: _amount}(\"\");\r\n        funds[msg.sender] -= _amount;\r\n    }\r\n\r\n    function NormalPayment(string memory _name, address _address, uint _amount) payable public{\r\n        require(msg.value==_amount);\r\n        (bool success,) = payable(_address).call{value: _amount}(\"\");\r\n        emit paymentDone(msg.sender, _address, _name, _amount);\r\n    }\r\n    //Payment automatic. Then with JS we make the payment on time.\r\n    function PaymentWithDeposit(string memory _name, address _address, uint _amount) payable public{\r\n        require(_amount <= funds[msg.sender]);\r\n        (bool success,) = payable(_address).call{value: _amount}(\"\");\r\n        funds[msg.sender] -= _amount; \r\n        emit paymentDone(msg.sender, _address, _name, _amount);\r\n    }\r\n\r\n    function Payment(string memory _name, address _address, uint _amount) payable public{\r\n        if(funds[msg.sender] >= _amount){\r\n            PaymentWithDeposit(_name, _address, _amount);\r\n        }else{            \r\n            NormalPayment(_name, _address, _amount);\r\n        }\r\n    }\r\n\r\n}",
  "sourcePath": "C:\\Users\\bruno\\Desktop\\Proyectos-Aprendizaje\\paymentsdapp\\src\\contracts\\Payments.sol",
  "compiler": {
    "name": "solc",
    "version": "0.8.0+commit.c7dfd78e.Emscripten.clang"
  },
  "schemaVersion": "3.4.7",
  "updatedAt": "2022-05-20T23:26:03.815Z",
  "devdoc": {
    "kind": "dev",
    "methods": {},
    "version": 1
  },
  "userdoc": {
    "kind": "user",
    "methods": {},
    "version": 1
  }
}